:03000000020006F5
:03005F0002000399
:0300030002008672
:10006200750880750925E4F50AF50B750C01F50D87
:10007200750E01F50F75100190000875F040120120
:10008200250204451200629001F41204489004E92A
:0800920075F08012024080EFBE
:0F04E90048656C6C6F2C776F726C64210D0A0084
:06003500E478FFF6D8FD9F
:100013007900E94400601B7A009004F8780175A028
:1000230000E493F2A308B8000205A0D9F4DAF2754C
:02003300A0FF2C
:10009A00AF82747F5587FEEF0354804EF58722E5C1
:1000AA008224FF929C22AC82AD83AEF0FFE58730BA
:1000BA00E72DC3E49C74E19DE49EE49F5004900004
:1000CA0000228C1A8D1B8E1C8F1D90E100E4F5F026
:1000DA00120464A882A983AAF0C3E498FB802DC302
:1000EA0074809C74709DE49EE49F500490000022EA
:1000FA008C1A8D1B8E1C8F1D907080E4F5F01204F3
:10010A0064AC82AD83AEF0FFC3E49CFB7F008B0638
:10011A007D00EB4DF582EF4EF58322AD82AE83AFC3
:10012A00F074042DFAE43EFB8F048A828B838CF0F0
:10013A001204C9F582C007C006C005120271D005B3
:10014A00D006D00774052DFAE43EFB8F048A828B11
:10015A00838CF01204C9F582C007C006C0051202DA
:10016A0078D005D006D00774072DFAE43EFB8F0439
:10017A008A828B838CF01204C9F582C007C006C03C
:10018A000512009AD005D006D00774062DFAE43E6F
:10019A00FB8F048A828B838CF01204C9F582C00714
:1001AA00C006C005120261D005D006D00774082D1A
:1001BA00FAE43EFB8F048A828B838CF01204C9F521
:1001CA0082C007C006C0051200A9D005D006D00714
:1001DA007511007512007513007514028D828E83D5
:1001EA008FF01204C9FDA31204C9FEA31204C9FFA9
:1001FA00A31204C98D828E838FF01200B0E5828526
:10020A0083F0F51585F016751711751800751940E4
:10021A00758201120299751A0175820102027FA282
:10022A0098E433F58222A299E433F58222858299F1
:10023A0010990280FB22AD82AE83AFF08D828E834D
:10024A008FF01204C9FC600E8C9910990280FB0D84
:10025A00BD00E90E80E622AF82743F5598FEEF0397
:10026A000354C04EF59822E58224FF92AC22E5821F
:10027A0024FF92BC22AF82BF00028005BF010F801B
:10028A0007E51A24FF928C22E51A24FF928E22AFE8
:10029A0082AC17AD18AE198C828D838EF01204C908
:1002AA00F51A8F82C007C006C005C00412039FD08A
:1002BA0004D005D006D00774032CF9E43DFA8E0366
:1002CA0089828A838BF01204C9F51A8F82C007C00B
:1002DA0006C005C0041203CAD004D005D006D00750
:1002EA0074042CF9E43DFA8E0389828A838BF01216
:1002FA0004C9F51AA31204C9F51B8F82C007C006E8
:10030A00C005C0041203EED004D005D006D007748D
:10031A00012CF9E43DFA8E0389828A838BF0120458
:10032A00C9F51A8F82C007C006C005C00412040EA0
:10033A00D004D005D006D00774022CFCE43DFD8C15
:10034A00828D838EF01204C9F51A8F82020428AFB7
:10035A0082BF00028005BF01248011AF8C7E00ACF1
:10036A008A7D00EC4EF582ED4FF58322AF8D7E003B
:10037A00AC8B7D00EC4EF582ED4FF58322900000A8
:10038A0022AF82BF00028005BF01088003A28D222E
:10039A00A28F22C322AF82BF00028005BF01208044
:1003AA000F74FB5589FFE51A251A25E04FF58922B6
:1003BA0074BF5589FFE51A030354C0FE4FF589221D
:1003CA00AF82BF00028005BF0119800974FC5589FC
:1003DA00451AF5892274CF5589FFE51AC454F0FEEF
:1003EA004FF58922AF82BF00028005BF011580093F
:1003FA00AF1B8F8CAE1A8E8A22AF1B8F8DAE1A7FDF
:10040A00008E8B22AF82BF00028005BF010F8007DA
:10041A00E51A24FF92A922E51A24FF92AB22AF82A1
:10042A00BF00028005BF010F8007E51A24FF92B9B9
:10043A0022E51A24FF92BB22C2AF22D2AF22AE8299
:10044A00AF838E048F051EBEFF011FEC4D600A7D2F
:0A045A006E8D041DEC60EB80F822AB
:10003B007800E84400600A790175A000E4F309D860
:10004B00FC7800E84400600C7900900001E4F0A318
:04005B00D8FCD9FAFA
:10046400FB7A20E4FCFDFEFFE5822582F582E5832C
:1004740033F583E5F033F5F0EB33FB4017DAE9802D
:1004840042E5822582F582E58333F583E5F033F591
:10049400F0EB33FBEC33FCED33FDEE33FEEF33FFD7
:1004A400EC951AED951BEE951CEF951D4013EC95FC
:1004B4001AFCED951BFDEE951CFEEF951DFF438286
:0504C40001DABEEB228D
:0D00060075811D1204E5E582600302000310
:1004C90020F71430F6148883A88220F507E6A8835C
:1004D90075830022E280F7E49322E02275820022EC
:00000001FF
